{
  "_format": "hh-sol-artifact-1",
  "contractName": "GLXSwapV2Pair",
  "sourceName": "contracts/GLXSwapV2Pair.sol",
  "abi": [
    {
      "inputs": [],
      "stateMutability": "nonpayable",
      "type": "constructor"
    },
    {
      "inputs": [],
      "name": "AlreadyInitialized",
      "type": "error"
    },
    {
      "inputs": [],
      "name": "BalanceOverflow",
      "type": "error"
    },
    {
      "inputs": [],
      "name": "ForbiddenAction",
      "type": "error"
    },
    {
      "inputs": [],
      "name": "InsufficientInputAmount",
      "type": "error"
    },
    {
      "inputs": [],
      "name": "InsufficientLiquidity",
      "type": "error"
    },
    {
      "inputs": [],
      "name": "InsufficientLiquidityBurned",
      "type": "error"
    },
    {
      "inputs": [],
      "name": "InsufficientLiquidityMinted",
      "type": "error"
    },
    {
      "inputs": [],
      "name": "InsufficientOutputAmount",
      "type": "error"
    },
    {
      "inputs": [],
      "name": "InvalidK",
      "type": "error"
    },
    {
      "inputs": [],
      "name": "TransferFailed",
      "type": "error"
    },
    {
      "anonymous": false,
      "inputs": [
        {
          "indexed": true,
          "internalType": "address",
          "name": "owner",
          "type": "address"
        },
        {
          "indexed": true,
          "internalType": "address",
          "name": "spender",
          "type": "address"
        },
        {
          "indexed": false,
          "internalType": "uint256",
          "name": "amount",
          "type": "uint256"
        }
      ],
      "name": "Approval",
      "type": "event"
    },
    {
      "anonymous": false,
      "inputs": [
        {
          "indexed": true,
          "internalType": "address",
          "name": "sender",
          "type": "address"
        },
        {
          "indexed": false,
          "internalType": "uint256",
          "name": "amount0",
          "type": "uint256"
        },
        {
          "indexed": false,
          "internalType": "uint256",
          "name": "amount1",
          "type": "uint256"
        },
        {
          "indexed": true,
          "internalType": "address",
          "name": "to",
          "type": "address"
        }
      ],
      "name": "Burn",
      "type": "event"
    },
    {
      "anonymous": false,
      "inputs": [
        {
          "indexed": true,
          "internalType": "address",
          "name": "sender",
          "type": "address"
        },
        {
          "indexed": false,
          "internalType": "uint256",
          "name": "amount0",
          "type": "uint256"
        },
        {
          "indexed": false,
          "internalType": "uint256",
          "name": "amount1",
          "type": "uint256"
        }
      ],
      "name": "Mint",
      "type": "event"
    },
    {
      "anonymous": false,
      "inputs": [
        {
          "indexed": true,
          "internalType": "address",
          "name": "sender",
          "type": "address"
        },
        {
          "indexed": false,
          "internalType": "uint256",
          "name": "amount0Out",
          "type": "uint256"
        },
        {
          "indexed": false,
          "internalType": "uint256",
          "name": "amount1Out",
          "type": "uint256"
        },
        {
          "indexed": true,
          "internalType": "address",
          "name": "to",
          "type": "address"
        }
      ],
      "name": "Swap",
      "type": "event"
    },
    {
      "anonymous": false,
      "inputs": [
        {
          "indexed": false,
          "internalType": "uint256",
          "name": "reserve0",
          "type": "uint256"
        },
        {
          "indexed": false,
          "internalType": "uint256",
          "name": "reserve1",
          "type": "uint256"
        }
      ],
      "name": "Sync",
      "type": "event"
    },
    {
      "anonymous": false,
      "inputs": [
        {
          "indexed": true,
          "internalType": "address",
          "name": "from",
          "type": "address"
        },
        {
          "indexed": true,
          "internalType": "address",
          "name": "to",
          "type": "address"
        },
        {
          "indexed": false,
          "internalType": "uint256",
          "name": "amount",
          "type": "uint256"
        }
      ],
      "name": "Transfer",
      "type": "event"
    },
    {
      "inputs": [],
      "name": "DOMAIN_SEPARATOR",
      "outputs": [
        {
          "internalType": "bytes32",
          "name": "",
          "type": "bytes32"
        }
      ],
      "stateMutability": "view",
      "type": "function"
    },
    {
      "inputs": [],
      "name": "PERMIT_TYPEHASH",
      "outputs": [
        {
          "internalType": "bytes32",
          "name": "",
          "type": "bytes32"
        }
      ],
      "stateMutability": "view",
      "type": "function"
    },
    {
      "inputs": [
        {
          "internalType": "address",
          "name": "",
          "type": "address"
        },
        {
          "internalType": "address",
          "name": "",
          "type": "address"
        }
      ],
      "name": "allowance",
      "outputs": [
        {
          "internalType": "uint256",
          "name": "",
          "type": "uint256"
        }
      ],
      "stateMutability": "view",
      "type": "function"
    },
    {
      "inputs": [
        {
          "internalType": "address",
          "name": "spender",
          "type": "address"
        },
        {
          "internalType": "uint256",
          "name": "amount",
          "type": "uint256"
        }
      ],
      "name": "approve",
      "outputs": [
        {
          "internalType": "bool",
          "name": "",
          "type": "bool"
        }
      ],
      "stateMutability": "nonpayable",
      "type": "function"
    },
    {
      "inputs": [
        {
          "internalType": "address",
          "name": "",
          "type": "address"
        }
      ],
      "name": "balanceOf",
      "outputs": [
        {
          "internalType": "uint256",
          "name": "",
          "type": "uint256"
        }
      ],
      "stateMutability": "view",
      "type": "function"
    },
    {
      "inputs": [
        {
          "internalType": "address",
          "name": "to",
          "type": "address"
        }
      ],
      "name": "burn",
      "outputs": [
        {
          "internalType": "uint256",
          "name": "amount0",
          "type": "uint256"
        },
        {
          "internalType": "uint256",
          "name": "amount1",
          "type": "uint256"
        }
      ],
      "stateMutability": "nonpayable",
      "type": "function"
    },
    {
      "inputs": [],
      "name": "decimals",
      "outputs": [
        {
          "internalType": "uint8",
          "name": "",
          "type": "uint8"
        }
      ],
      "stateMutability": "view",
      "type": "function"
    },
    {
      "inputs": [],
      "name": "factory",
      "outputs": [
        {
          "internalType": "address",
          "name": "",
          "type": "address"
        }
      ],
      "stateMutability": "view",
      "type": "function"
    },
    {
      "inputs": [],
      "name": "getReserves",
      "outputs": [
        {
          "internalType": "uint112",
          "name": "",
          "type": "uint112"
        },
        {
          "internalType": "uint112",
          "name": "",
          "type": "uint112"
        },
        {
          "internalType": "uint32",
          "name": "",
          "type": "uint32"
        }
      ],
      "stateMutability": "view",
      "type": "function"
    },
    {
      "inputs": [
        {
          "internalType": "address",
          "name": "token0_",
          "type": "address"
        },
        {
          "internalType": "address",
          "name": "token1_",
          "type": "address"
        }
      ],
      "name": "initialize",
      "outputs": [],
      "stateMutability": "nonpayable",
      "type": "function"
    },
    {
      "inputs": [],
      "name": "kLast",
      "outputs": [
        {
          "internalType": "uint256",
          "name": "",
          "type": "uint256"
        }
      ],
      "stateMutability": "view",
      "type": "function"
    },
    {
      "inputs": [
        {
          "internalType": "address",
          "name": "to",
          "type": "address"
        }
      ],
      "name": "mint",
      "outputs": [
        {
          "internalType": "uint256",
          "name": "liquidity",
          "type": "uint256"
        }
      ],
      "stateMutability": "nonpayable",
      "type": "function"
    },
    {
      "inputs": [],
      "name": "name",
      "outputs": [
        {
          "internalType": "string",
          "name": "",
          "type": "string"
        }
      ],
      "stateMutability": "view",
      "type": "function"
    },
    {
      "inputs": [
        {
          "internalType": "address",
          "name": "",
          "type": "address"
        }
      ],
      "name": "nonces",
      "outputs": [
        {
          "internalType": "uint256",
          "name": "",
          "type": "uint256"
        }
      ],
      "stateMutability": "view",
      "type": "function"
    },
    {
      "inputs": [
        {
          "internalType": "address",
          "name": "owner",
          "type": "address"
        },
        {
          "internalType": "address",
          "name": "spender",
          "type": "address"
        },
        {
          "internalType": "uint256",
          "name": "value",
          "type": "uint256"
        },
        {
          "internalType": "uint256",
          "name": "deadline",
          "type": "uint256"
        },
        {
          "internalType": "uint8",
          "name": "v",
          "type": "uint8"
        },
        {
          "internalType": "bytes32",
          "name": "r",
          "type": "bytes32"
        },
        {
          "internalType": "bytes32",
          "name": "s",
          "type": "bytes32"
        }
      ],
      "name": "permit",
      "outputs": [],
      "stateMutability": "nonpayable",
      "type": "function"
    },
    {
      "inputs": [],
      "name": "price0CumulativeLast",
      "outputs": [
        {
          "internalType": "uint256",
          "name": "",
          "type": "uint256"
        }
      ],
      "stateMutability": "view",
      "type": "function"
    },
    {
      "inputs": [],
      "name": "price1CumulativeLast",
      "outputs": [
        {
          "internalType": "uint256",
          "name": "",
          "type": "uint256"
        }
      ],
      "stateMutability": "view",
      "type": "function"
    },
    {
      "inputs": [
        {
          "internalType": "address",
          "name": "to",
          "type": "address"
        }
      ],
      "name": "skim",
      "outputs": [],
      "stateMutability": "nonpayable",
      "type": "function"
    },
    {
      "inputs": [
        {
          "internalType": "uint256",
          "name": "amount0Out",
          "type": "uint256"
        },
        {
          "internalType": "uint256",
          "name": "amount1Out",
          "type": "uint256"
        },
        {
          "internalType": "address",
          "name": "to",
          "type": "address"
        },
        {
          "internalType": "bytes",
          "name": "data",
          "type": "bytes"
        }
      ],
      "name": "swap",
      "outputs": [],
      "stateMutability": "nonpayable",
      "type": "function"
    },
    {
      "inputs": [],
      "name": "symbol",
      "outputs": [
        {
          "internalType": "string",
          "name": "",
          "type": "string"
        }
      ],
      "stateMutability": "view",
      "type": "function"
    },
    {
      "inputs": [],
      "name": "sync",
      "outputs": [],
      "stateMutability": "nonpayable",
      "type": "function"
    },
    {
      "inputs": [],
      "name": "token0",
      "outputs": [
        {
          "internalType": "address",
          "name": "",
          "type": "address"
        }
      ],
      "stateMutability": "view",
      "type": "function"
    },
    {
      "inputs": [],
      "name": "token1",
      "outputs": [
        {
          "internalType": "address",
          "name": "",
          "type": "address"
        }
      ],
      "stateMutability": "view",
      "type": "function"
    },
    {
      "inputs": [],
      "name": "totalSupply",
      "outputs": [
        {
          "internalType": "uint256",
          "name": "",
          "type": "uint256"
        }
      ],
      "stateMutability": "view",
      "type": "function"
    },
    {
      "inputs": [
        {
          "internalType": "address",
          "name": "to",
          "type": "address"
        },
        {
          "internalType": "uint256",
          "name": "amount",
          "type": "uint256"
        }
      ],
      "name": "transfer",
      "outputs": [
        {
          "internalType": "bool",
          "name": "",
          "type": "bool"
        }
      ],
      "stateMutability": "nonpayable",
      "type": "function"
    },
    {
      "inputs": [
        {
          "internalType": "address",
          "name": "from",
          "type": "address"
        },
        {
          "internalType": "address",
          "name": "to",
          "type": "address"
        },
        {
          "internalType": "uint256",
          "name": "amount",
          "type": "uint256"
        }
      ],
      "name": "transferFrom",
      "outputs": [
        {
          "internalType": "bool",
          "name": "",
          "type": "bool"
        }
      ],
      "stateMutability": "nonpayable",
      "type": "function"
    }
  ],
  "bytecode": "0x60e06040523480156200001157600080fd5b50604080518082018252600881526723a62c102830b4b960c11b60208083019182528351808501909452600484526323a62c1960e11b9084015281519192916012916200006291600091906200015d565b508151620000789060019060208501906200015d565b5060ff81166080524660a0526200008e620000ac565b60c0525050600680546001600160a01b0319163317905550620002e4565b60007f8b73c3c69bb8fe3d512ecc4cf759cc79239f7b179b0ffacaa9a75d522b39400f6000604051620000e0919062000240565b60408051918290038220828201825260018352603160f81b6020938401528151928301939093528101919091527fc89efdaa54c0f20c7adf612882df0950f5a951637e0307cdcb4c672f298b8bc660608201524660808201523060a082015260c00160405160208183030381529060405280519060200120905090565b8280546200016b9062000203565b90600052602060002090601f0160209004810192826200018f5760008555620001da565b82601f10620001aa57805160ff1916838001178555620001da565b82800160010185558215620001da579182015b82811115620001da578251825591602001919060010190620001bd565b50620001e8929150620001ec565b5090565b5b80821115620001e85760008155600101620001ed565b600181811c908216806200021857607f821691505b602082108114156200023a57634e487b7160e01b600052602260045260246000fd5b50919050565b600080835481600182811c9150808316806200025d57607f831692505b60208084108214156200027e57634e487b7160e01b86526022600452602486fd5b818015620002955760018114620002a757620002d6565b60ff19861689528489019650620002d6565b60008a81526020902060005b86811015620002ce5781548b820152908501908301620002b3565b505084890196505b509498975050505050505050565b60805160a05160c051612100620003146000396000610a4d01526000610a180152600061029e01526121006000f3fe608060405234801561001057600080fd5b506004361061018e5760003560e01c80636a627842116100de578063a9059cbb11610097578063d21220a711610071578063d21220a7146103c4578063d505accf146103d7578063dd62ed3e146103ea578063fff6cae91461041557600080fd5b8063a9059cbb1461038b578063bc25cf771461039e578063c45a0155146103b157600080fd5b80636a627842146102ff57806370a08231146103125780637464fc3d146103325780637ecebe001461033b57806389afcb441461035b57806395d89b411461038357600080fd5b806323b872dd1161014b5780633644e515116101255780633644e515146102d2578063485cc955146102da5780635909c0d5146102ed5780635a3d5493146102f657600080fd5b806323b872dd1461025f57806330adf81f14610272578063313ce5671461029957600080fd5b8063022c0d9f1461019357806306fdde03146101a85780630902f1ac146101c6578063095ea7b3146101fa5780630dfe16811461021d57806318160ddd14610248575b600080fd5b6101a66101a1366004611c03565b61041d565b005b6101b0610808565b6040516101bd9190611cc9565b60405180910390f35b6101ce610896565b604080516001600160701b03948516815293909216602084015263ffffffff16908201526060016101bd565b61020d610208366004611cfc565b6108c0565b60405190151581526020016101bd565b600754610230906001600160a01b031681565b6040516001600160a01b0390911681526020016101bd565b61025160025481565b6040519081526020016101bd565b61020d61026d366004611d28565b61092c565b6102517f6e71edae12b1b97f4d1f60370fef10105fa2faae0126114a169c64845d6126c981565b6102c07f000000000000000000000000000000000000000000000000000000000000000081565b60405160ff90911681526020016101bd565b610251610a14565b6101a66102e8366004611d69565b610a6f565b610251600a5481565b610251600b5481565b61025161030d366004611da2565b610b5d565b610251610320366004611da2565b60036020526000908152604090205481565b610251600c5481565b610251610349366004611da2565b60056020526000908152604090205481565b61036e610369366004611da2565b610dcd565b604080519283526020830191909152016101bd565b6101b0611117565b61020d610399366004611cfc565b611124565b6101a66103ac366004611da2565b61118a565b600654610230906001600160a01b031681565b600854610230906001600160a01b031681565b6101a66103e5366004611dbf565b611298565b6102516103f8366004611d69565b600460209081526000928352604080842090915290825290205481565b6101a66114f8565b600d5460ff161561042d57600080fd5b600d805460ff1916600117905584158015610446575083155b15610464576040516342301c2360e01b815260040160405180910390fd5b60008061046f610896565b5091509150816001600160701b03168711806104935750806001600160701b031686115b156104b15760405163bb55fd2760e01b815260040160405180910390fd5b86156104ce576007546104ce906001600160a01b03168689611618565b85156104eb576008546104eb906001600160a01b03168688611618565b82156105585760405163156ce6bd60e01b81526001600160a01b0386169063156ce6bd906105259033908b908b908a908a90600401611e36565b600060405180830381600087803b15801561053f57600080fd5b505af1158015610553573d6000803e3d6000fd5b505050505b6007546040516370a0823160e01b81523060048201526000916001600160a01b0316906370a0823190602401602060405180830381865afa1580156105a1573d6000803e3d6000fd5b505050506040513d601f19601f820116820180604052508101906105c59190611e82565b6008546040516370a0823160e01b81523060048201529192506000916001600160a01b03909116906370a0823190602401602060405180830381865afa158015610613573d6000803e3d6000fd5b505050506040513d601f19601f820116820180604052508101906106379190611e82565b600954909150600090610654908b906001600160701b0316611eb1565b8311610661576000610682565b600954610678908b906001600160701b0316611eb1565b6106829084611eb1565b6009549091506000906106a6908b90600160701b90046001600160701b0316611eb1565b83116106b35760006106db565b6009546106d1908b90600160701b90046001600160701b0316611eb1565b6106db9084611eb1565b9050811580156106e9575080155b156107075760405163098fb56160e01b815260040160405180910390fd5b6000610714836003611ec8565b610720866103e8611ec8565b61072a9190611eb1565b90506000610739836003611ec8565b610745866103e8611ec8565b61074f9190611eb1565b90506107676001600160701b03808916908a16611ec8565b61077490620f4240611ec8565b61077e8284611ec8565b101561079d57604051632f62f0d960e21b815260040160405180910390fd5b6107a986868a8a611707565b604080518e8152602081018e90526001600160a01b038d169133917f2a9237ff5aa599ef4c5ee4b1142b53429d5755e2685fe6288b2e3320202115f5910160405180910390a35050600d805460ff191690555050505050505050505050565b6000805461081590611ee7565b80601f016020809104026020016040519081016040528092919081815260200182805461084190611ee7565b801561088e5780601f106108635761010080835404028352916020019161088e565b820191906000526020600020905b81548152906001019060200180831161087157829003601f168201915b505050505081565b6009546001600160701b0380821692600160701b830490911691600160e01b900463ffffffff1690565b3360008181526004602090815260408083206001600160a01b038716808552925280832085905551919290917f8c5be1e5ebec7d5bd14f71427d1e84f3dd0314c0f7b2291e5b200ac8c7c3b9259061091b9086815260200190565b60405180910390a350600192915050565b6001600160a01b038316600090815260046020908152604080832033845290915281205460001914610991576001600160a01b03841660009081526004602090815260408083203384529091528120805484929061098b908490611eb1565b90915550505b6001600160a01b038416600090815260036020526040812080548492906109b9908490611eb1565b90915550506001600160a01b03808416600081815260036020526040908190208054860190555190918616906000805160206120ab83398151915290610a029086815260200190565b60405180910390a35060019392505050565b60007f00000000000000000000000000000000000000000000000000000000000000004614610a4a57610a45611885565b905090565b507f000000000000000000000000000000000000000000000000000000000000000090565b6007546001600160a01b0316151580610a9257506008546001600160a01b031615155b15610aaf5760405162dc149f60e41b815260040160405180910390fd5b6006546001600160a01b03163314610b045760405162461bcd60e51b815260206004820152601360248201527223a62c1029aba0a81d102327a92124a22222a760691b60448201526064015b60405180910390fd5b6006546001600160a01b03163314610b2f57604051632893247960e01b815260040160405180910390fd5b600780546001600160a01b039384166001600160a01b03199182161790915560088054929093169116179055565b600d5460009060ff1615610b7057600080fd5b600d805460ff19166001179055600080610b88610896565b506007546040516370a0823160e01b81523060048201529294509092506000916001600160a01b03909116906370a0823190602401602060405180830381865afa158015610bda573d6000803e3d6000fd5b505050506040513d601f19601f82011682018060405250810190610bfe9190611e82565b6008546040516370a0823160e01b81523060048201529192506000916001600160a01b03909116906370a0823190602401602060405180830381865afa158015610c4c573d6000803e3d6000fd5b505050506040513d601f19601f82011682018060405250810190610c709190611e82565b90506000610c876001600160701b03861684611eb1565b90506000610c9e6001600160701b03861684611eb1565b90506000610cac8787611934565b905060025460001415610cec576103e8610cce610cc98486611ec8565b611a73565b610cd89190611eb1565b9750610ce760006103e8611ae3565b610d3b565b610d38876001600160701b031660025485610d079190611ec8565b610d119190611f32565b876001600160701b031660025485610d299190611ec8565b610d339190611f32565b611b3d565b97505b60008811610d5c57604051633489be7560e21b815260040160405180910390fd5b610d668989611ae3565b610d7285858989611707565b60408051848152602081018490526001600160a01b038b16917f4c209b5fc8ad50758f13e2e1088ba56a560dff690a1c6fef26394f4c03821c4f910160405180910390a25050600d805460ff19169055509395945050505050565b600d54600090819060ff1615610de257600080fd5b600d805460ff19166001179055600080610dfa610896565b506007546040516370a0823160e01b81523060048201529294509092506000916001600160a01b03909116906370a0823190602401602060405180830381865afa158015610e4c573d6000803e3d6000fd5b505050506040513d601f19601f82011682018060405250810190610e709190611e82565b6008546040516370a0823160e01b81523060048201529192506000916001600160a01b03909116906370a0823190602401602060405180830381865afa158015610ebe573d6000803e3d6000fd5b505050506040513d601f19601f82011682018060405250810190610ee29190611e82565b30600090815260036020526040812054919250610eff8686611934565b600254909150610f0f8584611ec8565b610f199190611f32565b600254909850610f298484611ec8565b610f339190611f32565b9650871580610f40575086155b15610f5e5760405163749383ad60e01b815260040160405180910390fd5b610f683083611b55565b600754610f7f906001600160a01b03168a8a611618565b600854610f96906001600160a01b03168a89611618565b6007546040516370a0823160e01b81523060048201526001600160a01b03909116906370a0823190602401602060405180830381865afa158015610fde573d6000803e3d6000fd5b505050506040513d601f19601f820116820180604052508101906110029190611e82565b6008546040516370a0823160e01b81523060048201529195506001600160a01b0316906370a0823190602401602060405180830381865afa15801561104b573d6000803e3d6000fd5b505050506040513d601f19601f8201168201806040525081019061106f9190611e82565b925060008061107c610896565b509150915061108d86868484611707565b82156110b6576009546110b2906001600160701b03600160701b820481169116611ec8565b600c555b604080518b8152602081018b90526001600160a01b038d169133917fdccd412f0b1252819cb1fd330b93224ca42612892bb3f4f789976e6d81936496910160405180910390a35050600d805460ff1916905550959794965093945050505050565b6001805461081590611ee7565b33600090815260036020526040812080548391908390611145908490611eb1565b90915550506001600160a01b038316600081815260036020526040908190208054850190555133906000805160206120ab8339815191529061091b9086815260200190565b600d5460ff161561119a57600080fd5b600d805460ff191660011790556007546008546009546040516370a0823160e01b81523060048201526001600160a01b03938416939092169161124191849186916001600160701b03169083906370a08231906024015b602060405180830381865afa15801561120e573d6000803e3d6000fd5b505050506040513d601f19601f820116820180604052508101906112329190611e82565b61123c9190611eb1565b611618565b6009546040516370a0823160e01b81523060048201526112899183918691600160701b90046001600160701b0316906001600160a01b038416906370a08231906024016111f1565b5050600d805460ff1916905550565b428410156112e85760405162461bcd60e51b815260206004820152601760248201527f5045524d49545f444541444c494e455f455850495245440000000000000000006044820152606401610afb565b60006112f2610a14565b6001600160a01b0389811660008181526005602090815260409182902080546001810190915582517f6e71edae12b1b97f4d1f60370fef10105fa2faae0126114a169c64845d6126c98184015280840194909452938c166060840152608083018b905260a083019390935260c08083018a90528151808403909101815260e08301909152805192019190912061190160f01b6101008301526101028201929092526101228101919091526101420160408051601f198184030181528282528051602091820120600080855291840180845281905260ff88169284019290925260608301869052608083018590529092509060019060a0016020604051602081039080840390855afa15801561140b573d6000803e3d6000fd5b5050604051601f1901519150506001600160a01b038116158015906114415750886001600160a01b0316816001600160a01b0316145b61148d5760405162461bcd60e51b815260206004820152601860248201527f494e56414c49445f5045524d49545f5349474e415455524500000000000000006044820152606401610afb565b6001600160a01b0390811660009081526004602090815260408083208b8516808552908352928190208a905551898152919350918a16917f8c5be1e5ebec7d5bd14f71427d1e84f3dd0314c0f7b2291e5b200ac8c7c3b925910160405180910390a350505050505050565b600d5460ff161561150857600080fd5b600d805460ff19166001179055600080611520610896565b506007546040516370a0823160e01b815230600482015292945090925061160a916001600160a01b03909116906370a0823190602401602060405180830381865afa158015611573573d6000803e3d6000fd5b505050506040513d601f19601f820116820180604052508101906115979190611e82565b6008546040516370a0823160e01b81523060048201526001600160a01b03909116906370a0823190602401602060405180830381865afa1580156115df573d6000803e3d6000fd5b505050506040513d601f19601f820116820180604052508101906116039190611e82565b8484611707565b5050600d805460ff19169055565b6040516001600160a01b03838116602483015260448201839052600091829186169060640160408051601f198184030181529181526020820180516001600160e01b031663a9059cbb60e01b179052516116729190611f46565b6000604051808303816000865af19150503d80600081146116af576040519150601f19603f3d011682016040523d82523d6000602084013e6116b4565b606091505b50915091508115806116e257508051158015906116e25750808060200190518101906116e09190611f62565b155b15611700576040516312171d8360e31b815260040160405180910390fd5b5050505050565b6001600160701b0384118061172257506001600160701b0383115b15611740576040516389560ca160e01b815260040160405180910390fd5b60095463ffffffff600160e01b909104811642039081161580159061176e57506000836001600160701b0316115b801561178357506000826001600160701b0316115b156117ee578063ffffffff166117ab8461179c85611bb7565b6001600160e01b031690611bd6565b600a80546001600160e01b03929092169290920201905563ffffffff81166117d68361179c86611bb7565b600b80546001600160e01b0392909216929092020190555b506009805463ffffffff4216600160e01b026001600160e01b036001600160701b03878116600160701b9081026001600160e01b03199095168a83161794909417918216831794859055604080519382169282169290921783529290930490911660208201527fcf2aa50876cdfbb541206f89af0ee78d44a2abf8d328e37fa4917f982149848a910160405180910390a150505050565b60007f8b73c3c69bb8fe3d512ecc4cf759cc79239f7b179b0ffacaa9a75d522b39400f60006040516118b79190611f84565b60408051918290038220828201825260018352603160f81b6020938401528151928301939093528101919091527fc89efdaa54c0f20c7adf612882df0950f5a951637e0307cdcb4c672f298b8bc660608201524660808201523060a082015260c00160405160208183030381529060405280519060200120905090565b600080600660009054906101000a90046001600160a01b03166001600160a01b031663017e7e586040518163ffffffff1660e01b8152600401602060405180830381865afa15801561198a573d6000803e3d6000fd5b505050506040513d601f19601f820116820180604052508101906119ae9190612020565b600c546001600160a01b038216158015945091925090611a5f578015611a5a5760006119e9610cc96001600160701b03808816908916611ec8565b905060006119f683611a73565b905080821115611a57576000611a0c8284611eb1565b600254611a199190611ec8565b9050600082611a29856005611ec8565b611a33919061203d565b90506000611a418284611f32565b90508015611a5357611a538782611ae3565b5050505b50505b611a6b565b8015611a6b576000600c555b505092915050565b60006003821115611ad45750806000611a8d600283611f32565b611a9890600161203d565b90505b81811015611ace57905080600281611ab38186611f32565b611abd919061203d565b611ac79190611f32565b9050611a9b565b50919050565b8115611ade575060015b919050565b8060026000828254611af5919061203d565b90915550506001600160a01b0382166000818152600360209081526040808320805486019055518481526000805160206120ab83398151915291015b60405180910390a35050565b6000818310611b4c5781611b4e565b825b9392505050565b6001600160a01b03821660009081526003602052604081208054839290611b7d908490611eb1565b90915550506002805482900390556040518181526000906001600160a01b038416906000805160206120ab83398151915290602001611b31565b6000611bd0600160701b6001600160701b038416612055565b92915050565b6000611b4e6001600160701b03831684612084565b6001600160a01b0381168114611c0057600080fd5b50565b600080600080600060808688031215611c1b57600080fd5b85359450602086013593506040860135611c3481611beb565b9250606086013567ffffffffffffffff80821115611c5157600080fd5b818801915088601f830112611c6557600080fd5b813581811115611c7457600080fd5b896020828501011115611c8657600080fd5b9699959850939650602001949392505050565b60005b83811015611cb4578181015183820152602001611c9c565b83811115611cc3576000848401525b50505050565b6020815260008251806020840152611ce8816040850160208701611c99565b601f01601f19169190910160400192915050565b60008060408385031215611d0f57600080fd5b8235611d1a81611beb565b946020939093013593505050565b600080600060608486031215611d3d57600080fd5b8335611d4881611beb565b92506020840135611d5881611beb565b929592945050506040919091013590565b60008060408385031215611d7c57600080fd5b8235611d8781611beb565b91506020830135611d9781611beb565b809150509250929050565b600060208284031215611db457600080fd5b8135611b4e81611beb565b600080600080600080600060e0888a031215611dda57600080fd5b8735611de581611beb565b96506020880135611df581611beb565b95506040880135945060608801359350608088013560ff81168114611e1957600080fd5b9699959850939692959460a0840135945060c09093013592915050565b60018060a01b038616815284602082015283604082015260806060820152816080820152818360a0830137600081830160a090810191909152601f909201601f19160101949350505050565b600060208284031215611e9457600080fd5b5051919050565b634e487b7160e01b600052601160045260246000fd5b600082821015611ec357611ec3611e9b565b500390565b6000816000190483118215151615611ee257611ee2611e9b565b500290565b600181811c90821680611efb57607f821691505b60208210811415611ace57634e487b7160e01b600052602260045260246000fd5b634e487b7160e01b600052601260045260246000fd5b600082611f4157611f41611f1c565b500490565b60008251611f58818460208701611c99565b9190910192915050565b600060208284031215611f7457600080fd5b81518015158114611b4e57600080fd5b600080835481600182811c915080831680611fa057607f831692505b6020808410821415611fc057634e487b7160e01b86526022600452602486fd5b818015611fd45760018114611fe557612012565b60ff19861689528489019650612012565b60008a81526020902060005b8681101561200a5781548b820152908501908301611ff1565b505084890196505b509498975050505050505050565b60006020828403121561203257600080fd5b8151611b4e81611beb565b6000821982111561205057612050611e9b565b500190565b60006001600160e01b038281168482168115158284048211161561207b5761207b611e9b565b02949350505050565b60006001600160e01b038381168061209e5761209e611f1c565b9216919091049291505056feddf252ad1be2c89b69c2b068fc378daa952ba7f163c4a11628f55a4df523b3efa26469706673582212209ff8b6596863e221c8febb9561c40d91464db616d03a966508c4825830836b8564736f6c634300080a0033",
  "linkReferences": {},
  "deployedLinkReferences": {}
}